:100000000C9465010C94F4010C9407020C94820189
:100010000C9482010C9427020C9482010C948201AE
:100020000C9482010C9482010C9482010C94820144
:100030000C9482010C9482010C9484010C94820132
:100040000C9482010C9482010C9482010C94820124
:100050000C9482010C9482010C9482010C94820114
:100060000C9482010C94820108000000BE92244985
:10007000123EABAAAA2ABECDCCCC4C3E00000080DA
:10008000BEABAAAAAA3E00000000BF000000803F4D
:100090000000000000084178D3BB4387D1133D190D
:1000A0000E3CC3BD4282AD2B3E68EC8276BED98F3A
:1000B000E1A93E4C80EFFFBE01C4FF7F3F0000007E
:1000C000000007634236B79BD8A71A39685618AEA6
:1000D000BAAB558C1D3CB7CC5763BD6DEDFD753E7D
:1000E000F6177231BF000000803F000000000000E2
:1000F000005F00000007000700147F147F14242A0B
:100100007F2A1223130864623649552250000503E2
:100110000000001C2241000041221C0014083E087F
:100120001408083E080800503000000808080808B5
:10013000006060000020100804023E5149453E0066
:10014000427F400042615149462141454B311814DC
:10015000127F1027454545393C4A4949300171090C
:1001600005033649494936064949291E00363600F5
:100170000000563600000814224100141414141410
:1001800000412214080201510906324979413E7E9C
:100190001111117E7F494949363E414141227F413B
:1001A00041221C7F494949417F090909013E4149D2
:1001B000497A7F0808087F00417F41002040413F85
:1001C000017F081422417F404040407F020C027FA3
:1001D0007F0408107F3E4141413E7F090909063EE8
:1001E0004151215E7F09192946464949493101019A
:1001F0007F01013F4040403F1F2040201F3F4038CB
:10020000403F6314081463070870080761514945AB
:1002100043007F41410002040810200041417F005B
:10022000040201020440404040400001020400205A
:10023000545454787F484444383844444420384423
:1002400044487F3854545418087E0901020C525215
:10025000523E7F0804047800447D40002040443D25
:10026000007F1028440000417F40007C041804787F
:100270007C0804047838444444387C141414080876
:100280001414187C7C080404084854545420043F77
:100290004440203C4040207C1C2040201C3C4030FE
:1002A000403C44281028440C5050503C4464544C6A
:1002B00044000836410000007F000000413608007D
:1002C0001008081008000000000011241FBECFEF26
:1002D000D8E0DEBFCDBF11E0A0E0B1E0E2EDF9E291
:1002E00002C005900D92A435B107D9F723E0A4E52B
:1002F000B1E001C01D92AE36B207E1F70E940B09D2
:100300000C94E7140C9400001F920F9200905F0071
:100310000F9211242F933F934F935F936F937F938B
:100320008F939F93AF93BF93EF93FF93CF93DF93FD
:10033000CDB7DEB78091570190915801A091590136
:10034000B0915A010196A11DB11D80935701909360
:100350005801A0935901B0935A018091570190918F
:100360005801A0915901B0915A0128E833E140E0C9
:1003700050E0BC01CD010E94AD11DC01CB01892B05
:100380008A2B8B2B19F481E08093550180915701C2
:1003900090915801A0915901B0915A0124EF31E098
:1003A00040E050E0BC01CD010E94AD11DC01CB0169
:1003B000892B8A2B8B2B19F481E080935601000046
:1003C000DF91CF91FF91EF91BF91AF919F918F916D
:1003D0007F916F915F914F913F912F910F9000927C
:1003E0005F000F901F9018951F920F9200905F0072
:1003F0000F921124CF93DF93CDB7DEB70000DF91CA
:10040000CF910F9000925F000F901F9018951F9250
:100410000F9200905F000F9211248F939F93CF93C0
:10042000DF93CDB7DEB780915B0190915C010196BF
:1004300090935C0180935B010000DF91CF919F91CD
:100440008F910F9000925F000F901F9018951F9250
:100450000F9200905F000F921124CF92DF92EF92E3
:10046000FF920F931F932F933F934F935F936F933D
:100470007F938F939F93AF93BF93EF93FF93CF930C
:10048000DF93CDB7DEB789E290E0FC018081882F51
:1004900090E080719927892B09F057C08091540111
:1004A000882F90E081309105A9F0823091051CF4ED
:1004B000892B39F04AC082309105F1F0039771F130
:1004C00044C090910C0181E0992309F080E0809371
:1004D0000C013BC080910D0190910E0181349F4130
:1004E00078F580910D0190910E0188519C4F909369
:1004F0000E0180930D0124C080910F019091100195
:1005000081349F41F8F480910F019091100188513E
:100510009C4F9093100180930F0114C080911101A2
:100520009091120181349F4178F480911101909152
:10053000120188519C4F909312018093110104C0C5
:10054000000003C0000001C0000089E290E0FC014F
:100550008081882F90E080729927892B09F057C0FD
:1005600080915401882F90E081309105A9F082306C
:1005700091051CF4892B39F04AC082309105F1F0C5
:10058000039771F144C090910C0181E0992309F027
:1005900080E080930C013BC080910D0190910E0191
:1005A000803D974078F180910D0190910E01885E19
:1005B000934090930E0180930D0124C080910F0110
:1005C00090911001803D9740F8F080910F0190913B
:1005D0001001885E93409093100180930F0114C026
:1005E0008091110190911201803D974078F08091A7
:1005F000110190911201885E9340909312018093B3
:10060000110104C0000003C0000001C0000089E225
:1006100090E0FC018081882F90E080749927892BDD
:1006200061F480915401833030F4809154018F5FE4
:100630008093540102C010925401C0900C01D090DC
:100640000D01E0900E01F0900F010091100110914A
:100650001101209112013091130140911401509128
:1006600015016091160170911701809118010E9487
:10067000A9040000DF91CF91FF91EF91BF91AF915D
:100680009F918F917F916F915F914F913F912F91AA
:100690001F910F91FF90EF90DF90CF900F900092FD
:1006A0005F000F901F9018958F929F92AF92BF920C
:1006B000CF92DF92EF92FF920F931F93CF93DF932E
:1006C000CDB7DEB7A3970FB6F894DEBF0FBECDBF90
:1006D000CB8ADC8AED8AFE8A0F8B188F298F3A8F9E
:1006E0004B8F5C8F6D8F7E8F8F8F88A299A2AAA26D
:1006F000BBA222E1E9E1F1E0CE010196DC0101902B
:100700000D922A95E1F785E290E020915D01022E9D
:10071000000C330B220F331FAE014F5F5F4F240FCE
:10072000351FF90120813181FC01208380915D0119
:10073000082E000C990B880F991F9E012F5F3F4FC9
:10074000820F931FFC018081918188279170892BF2
:1007500051F08BE290E02BE230E0F901208120683B
:10076000FC01208309C08BE290E02BE230E0F9012C
:1007700020812F77FC01208380915D0184300CF073
:1007800042C080915E0190915F01A0916001B091A3
:10079000610128A139A14AA15BA1281B390B4A0B91
:1007A0005B0B8C899D899695879596958795CC014D
:1007B000A0E0B0E0281739074A075B0708F4B5C086
:1007C00080915D018F5F80935D018C899D899695F5
:1007D0008795969587959C0140E050E080915E0159
:1007E00090915F01A0916001B0916101820F931F10
:1007F000A41FB51F80935E0190935F01A0936001D9
:10080000B093610192C080915D018530D4F58091F3
:100810005E0190915F01A0916001B091610128A1FA
:1008200039A14AA15BA1281B390B4A0B5B0B888DB0
:10083000998DCC01A0E0B0E0281739074A075B0783
:1008400008F473C080915D018F5F80935D01888D96
:10085000998D9C0140E050E080915E0190915F0194
:10086000A0916001B0916101820F931FA41FB51F79
:1008700080935E0190935F01A0936001B09361014A
:1008800054C080915D0189300CF041C080915E01BF
:1008900090915F01A0916001B091610128A139A1FF
:1008A0004AA15BA1281B390B4A0B5B0B8E899F89E0
:1008B0009695879596958795CC01A0E0B0E028178E
:1008C00039074A075B0788F180915D018F5F80934C
:1008D0005D018E899F8996958795969587959C0150
:1008E00040E050E080915E0190915F01A091600135
:1008F000B0916101820F931FA41FB51F80935E0109
:1009000090935F01A0936001B09361010EC01092BB
:100910005D0188A199A1AAA1BBA180935E019093DA
:100920005F01A0936001B09361010000A3960FB630
:10093000F894DEBF0FBECDBFDF91CF911F910F9115
:10094000FF90EF90DF90CF90BF90AF909F908F90EF
:100950000895CF92DF92EF92FF920F931F93CF9360
:10096000DF93CDB7DEB7A3970FB6F894DEBF0FBE07
:10097000CDBFCF8AD88EE98EFA8E0B8F1C8F2D8F2C
:100980003E8F4F8F58A369A37AA38BA38F898823A7
:1009900011F081E401C08DE489831A82888D998DDC
:1009A0009695879596958795969587959C01A5EC44
:1009B000B0E20E94EE11929582958F7089279F7008
:1009C0008927292F2F938F938BE291E0892F8F9383
:1009D0008BE291E08F93CE010396292F2F938F9373
:1009E0000E94FD110F900F900F900F900F900F909D
:1009F0008A8D9B8D969587959695879596958795E3
:100A00009C01A5ECB0E20E94EE11929582958F7048
:100A100089279F708927292F2F938F938BE291E04D
:100A2000892F8F938BE291E08F93CE010596292F2A
:100A30002F938F930E94FD110F900F900F900F90A6
:100A40000F900F908C8D9D8D969587959695879597
:100A5000969587959C01A5ECB0E20E94EE119295C7
:100A600082958F7089279F708927292F2F938F93C5
:100A70008BE291E0892F8F938BE291E08F93CE01EF
:100A80000796292F2F938F930E94FD110F900F909F
:100A90000F900F900F900F908E8D9F8D969587954C
:100AA000969587959C01A5ECB0E20E94EE11929577
:100AB00082958F7089279F708927292F2F938F9375
:100AC0008BE291E0892F8F938BE291E08F93CE019F
:100AD0000996292F2F938F930E94FD110F900F904D
:100AE0000F900F900F900F9088A199A1292F2F930D
:100AF0008F938BE291E0892F8F938BE291E08F931C
:100B0000CE010D96292F2F938F930E94FD110F90E8
:100B10000F900F900F900F900F908AA19BA1292FFB
:100B20002F938F938BE291E0892F8F938BE291E04B
:100B30008F93CE014296292F2F938F930E94FD1100
:100B40000F900F900F900F900F900F900E945A0CE3
:100B500065E080E00E94B00D61E08EE291E00E94CD
:100B60008D0D65E08EE10E94B00D61E0CE01019631
:100B70000E948D0D6FE080E00E94B00D61E083E384
:100B800091E00E948D0D6FE08EE10E94B00DCE01CC
:100B9000039661E00E948D0D61E088E391E00E9480
:100BA0008D0D69E180E00E94B00D61E08AE391E083
:100BB0000E948D0D69E18EE10E94B00DCE01059677
:100BC00061E00E948D0D61E088E391E00E948D0D4F
:100BD00063E280E00E94B00D61E08FE391E00E944B
:100BE0008D0D63E28EE10E94B00DCE01079661E0AB
:100BF0000E948D0D61E088E391E00E948D0D80914F
:100C00005401880F982F990F990F890F8B5F682FC8
:100C10008AE20E94B00D61E084E491E00E948D0DB3
:100C200064E184E30E94B00DCE01099661E00E9468
:100C30008D0D6EE187E30E94B00D61E086E491E0E6
:100C40000E948D0D60E084E30E94B00DCE010D96F0
:100C500061E00E948D0D6AE087E30E94B00D61E0C3
:100C60008CE491E00E948D0D68E284E30E94B00D57
:100C7000CE01429661E00E948D0D68E281E40E94FF
:100C8000B00D61E080E591E00E948D0D0E94C30DE2
:100C90000000A3960FB6F894DEBF0FBECDBFDF9164
:100CA000CF911F910F91FF90EF90DF90CF9008951B
:100CB000CF93DF9300D0CDB7DEB79A838983898144
:100CC0009A81FC018081882309F4C0C089819A81BE
:100CD000FC01108280915B0190915C019093630113
:100CE0008093620110925C0110925B01209162017D
:100CF00030916301C901880F991F820F931F880FDC
:100D0000991F880F991F909314018093130180916C
:100D10000C01882309F49AC0809113019091140169
:100D2000CC01A0E0B0E0BC01CD010E94F80EDC01D6
:100D3000CB012AE939E945E851E4BC01CD010E9423
:100D4000FF0FDC01CB01BC01CD010E94C90EDC010B
:100D5000CB019695879596958795969587959C0155
:100D6000A5ECB0E20E94EE11929582958F708927D2
:100D70009F708927AC014F5F5F4F28EE33E0429FA1
:100D8000C001439F900D529F900D112490930E012E
:100D900080930D0180910D0190910E018932934253
:100DA00030F088E293E290930E0180930D018091E0
:100DB000130190911401CC01A0E0B0E0BC01CD0181
:100DC0000E94F80EDC01CB012AE939E945E851E43B
:100DD000BC01CD010E94FF0FDC01CB01BC01CD01A4
:100DE0000E94C90EDC01CB01969587959695879553
:100DF000969587959C01A5ECB0E20E94EE11AC019E
:100E0000529542954F7045275F70452728EE33E095
:100E1000429FC001439F900D529F900D112428E2E4
:100E200033E2A901481B590BCA019093100180932A
:100E30000F0180910F019091100181309D4730F09A
:100E400088EE93E09093100180930F0100000F90C3
:100E50000F90DF91CF910895CF92DF92EF92FF92A2
:100E60000F931F93CF93DF9300D0CDB7DEB79A8354
:100E7000898389819A81FC018081882309F477C064
:100E800088E790E0FC01808191819C0140E050E086
:100E900088E19CE9AFE0B0E0BC01CD010E94CF1138
:100EA000DA01C901885E9340A109B109BC01CD01F5
:100EB0000E94FA0EDC01CB0121E73DE34AE450E455
:100EC000BC01CD010E94FF0FDC01CB01BC01CD01B3
:100ED0000E94C90EDC01CB0190931601809315018D
:100EE00080911501909116018D32914028F084EB8C
:100EF00090E0FC0110821BC086E290E0FC01808142
:100F0000882F90E080749927892B31F0809113010C
:100F100090911401892B31F084EB90E02FEFFC01CC
:100F2000208305C084EB90E025E5FC0120838981C6
:100F30009A81FC011082C0900C01D0900D01E090CC
:100F40000E01F0900F0100911001109111012091FC
:100F500012013091130140911401509115016091DB
:100F6000160170911701809118010E94A9040000D8
:100F70000F900F90DF91CF911F910F91FF90EF9005
:100F8000DF90CF9008958F929F92AF92BF92CF92B1
:100F9000DF92EF92FF920F931F93CF93DF9300D0D6
:100FA000CDB7DEB79A83898389819A81FC018081DC
:100FB000882309F420C188E790E0FC0180819181B9
:100FC000CC01A0E0B0E0BC01CD010E94F80EDC0134
:100FD000CB0120E030E040EA50E4BC01CD010E94AA
:100FE000FF0FDC01CB0120E030EC4FE754E4BC0103
:100FF000CD010E94570EDC01CB01809362039093D8
:101000006303A0936403B09365038091620390919E
:101010006303A0916403B09165039C01AD0160E09E
:1010200070E080EA90E40E94E50DDC01CB019C01B8
:10103000AD0160E070E48CE196E40E94570EDC01A3
:10104000CB017C018D018091620390916303A0919B
:101050006403B09165039C01AD01C801B7010E9412
:10106000FF0FDC01CB0180935E0390935F03A0939D
:101070006003B093610380915E0390915F03A09140
:101080006003B0916103BC01CD010E94B70F7B01E9
:101090008C018091040190910501A0910601B0910D
:1010A00007019C01AD01C801B7010E94FF0FDC01DF
:1010B000CB017C018D018091000190910101A091F3
:1010C0000201B09103019C01AD01C801B7010E946A
:1010D000E60DDC01CB016C017D0180915E039091F6
:1010E0005F03A0916003B0916103BC01CD010E9438
:1010F000B70FDC01CB0120E030E040E450E4BC015C
:10110000CD010E946C104B015C018091080190910F
:101110000901A0910A01B0910B019C01AD01C5012B
:10112000B4010E94FF0FDC01CB019C01AD01C7019E
:10113000B6010E94E60DDC01CB019C01AD0160E02F
:1011400070E080E89FE30E94570EDC01CB018093A2
:10115000660390936703A0936803B093690380913B
:10116000660390916703A0916803B091690320E042
:1011700030E848E853E4BC01CD010E94E50DDC01F4
:10118000CB0180936A0390936B03A0936C03B0939D
:101190006D0380916A0390916B03A0916C03B091F1
:1011A0006D03BC01CD010E94C90EDC01CB019093FF
:1011B00018018093170189819A81FC011082C090E7
:1011C0000C01D0900D01E0900E01F0900F01009104
:1011D00010011091110120911201309113014091E1
:1011E00014015091150160911601709117018091C1
:1011F00018010E94A90400000F900F90DF91CF9179
:101200001F910F91FF90EF90DF90CF90BF90AF9024
:101210009F908F9008958F929F92AF92BF92CF929E
:10122000DF92EF92FF920F931F93CF93DF93CDB78F
:10123000DEB72E970FB6F894DEBF0FBECDBF84E2A7
:1012400090E02FEFFC0120838AE290E020E8FC018F
:10125000208387E290E027E230E0F90120812064DA
:10126000FC0120838BE290E02DE7FC0120838AE2E1
:1012700090E022E0FC01208389E690E02AE0FC0176
:1012800020838DE390E023E0FC01208388E690E05A
:1012900024E0FC0120838DE690E021E7FC0120831F
:1012A00084E490E022E0FC01208385E490E023E0E8
:1012B000FC01208387E490E029EFFC0120838EE687
:1012C00090E022E0FC0120838CE790E020E4FC0128
:1012D00020838AE790E027EEFC0120838BE790E0F3
:1012E000FC0110828EE790E021E0FC0120830E9447
:1012F000DA0AC0900C01D0900D01E0900E01F09040
:101300000F010091100110911101209112013091F3
:1013100013014091140150911501609116017091D3
:101320001701809118010E94A90478948BE290E043
:101330002BE230E0F901308122E02327FC012083F9
:1013400080E090E0AAE7B4E489839A83AB83BC830E
:1013500020E030E04AE755E469817A818B819C8105
:101360000E94FF0FDC01CB018D839E83AF83B88782
:1013700020E030E040E85FE36D817E818F819885D9
:101380000E94520E88232CF481E090E09A8789878E
:101390003FC020E03FEF4FE757E46D817E818F81B2
:1013A00098850E94AA0F18164CF520E030E040E224
:1013B00051E469817A818B819C810E94FF0FDC015D
:1013C000CB01BC01CD010E94C90EDC01CB019A8783
:1013D00089870FC080E991E09C878B878B859C85EE
:1013E0000197F1F79C878B8789859A8501979A8762
:1013F000898789859A85892B69F714C06D817E81DB
:101400008F8198850E94C90EDC01CB019A8789875C
:1014100089859A859E878D878D859E850197F1F7B1
:101420009E878D878091570190915801A091590115
:10143000B0915A014C015D01C0900C01D0900D019A
:10144000E0900E01F0900F01009110011091110138
:101450002091120130911301409114015091150116
:101460006091160170911701809118010E94540338
:1014700085E591E00E94580686E591E00E942C07E0
:1014800086E591E00E94C30751CF1F93CF93DF936E
:1014900000D0CDB7DEB789836A8388E290E028E286
:1014A00030E0F90120812D7FFC0120838A8188238F
:1014B00051F088E290E028E230E0F90120812860D4
:1014C000FC01208309C088E290E028E230E0F901C5
:1014D0002081277FFC01208310E03CC08981882F78
:1014E00090E0212F30E047E050E0BA01621B730B1F
:1014F0009B0102C0959587952A95E2F781709927FF
:10150000892B51F088E290E028E230E0F901208157
:101510002061FC01208309C088E290E028E230E0ED
:10152000F90120812F7EFC01208388E290E028E2EF
:1015300030E0F90120812062FC01208388E290E004
:1015400028E230E0F90120812F7DFC012083812FEA
:1015500011E0180F183010F288E290E028E230E035
:10156000F90120812260FC01208300000F900F9080
:10157000DF91CF911F910895CF93DF931F92CDB745
:10158000DEB7898360E089810E94450A00000F90E0
:10159000DF91CF910895CF93DF931F92CDB7DEB740
:1015A000898361E089810E94450A00000F90DF91E4
:1015B000CF9108950F931F93CF93DF93CDB7DEB7ED
:1015C0006C970FB6F894DEBF0FBECDBF87E290E0F8
:1015D00027E230E0F90120812260FC01208387E2CC
:1015E00090E027E230E0F90120812460FC012083B3
:1015F00087E290E027E230E0F90120812860FC01D9
:10160000208387E290E027E230E0F9012081206129
:10161000FC01208387E290E027E230E0F90120819D
:101620002062FC01208388E290E028E230E0F901AA
:1016300020812460FC01208388E290E028E230E0F1
:10164000F90120812260FC01208380E090E0A0E28B
:10165000B1E489839A83AB83BC8320E030E04AE71E
:1016600053E469817A818B819C810E94FF0FDC01A8
:10167000CB018B8B9C8BAD8BBE8B20E030E040E8A8
:101680005FE36B897C898D899E890E94520E882335
:101690002CF481E090E0988F8F8B3FC020E03FEFEB
:1016A0004FE757E46B897C898D899E890E94AA0F38
:1016B00018164CF520E030E040E251E469817A816F
:1016C0008B819C810E94FF0FDC01CB01BC01CD010D
:1016D0000E94C90EDC01CB01988F8F8B0FC089E16E
:1016E00090E09A8F898F898D9A8D0197F1F79A8F63
:1016F000898F8F89988D0197988F8F8B8F89988D7F
:10170000892B69F714C06B897C898D899E890E9419
:10171000C90EDC01CB01988F8F8B8F89988D9C8FA0
:101720008B8F8B8D9C8D0197F1F79C8F8B8F88E22F
:1017300090E028E230E0F90120812B7FFC0120833A
:1017400080E090E0ACE8B2E48D839E83AF83B887FD
:1017500020E030E04AE753E46D817E818F819885F7
:101760000E94FF0FDC01CB0189879A87AB87BC877A
:1017700020E030E040E85FE369857A858B859C85D1
:101780000E94520E88232CF481E090E09E878D8782
:101790003FC020E03FEF4FE757E469857A858B85AE
:1017A0009C850E94AA0F18164CF520E030E040E21C
:1017B00051E46D817E818F8198850E94FF0FDC014D
:1017C000CB01BC01CD010E94C90EDC01CB019E877B
:1017D0008D870FC089E190E0988B8F878F859889DE
:1017E0000197F1F7988B8F878D859E8501979E874E
:1017F0008D878D859E85892B69F714C069857A85CB
:101800008B859C850E94C90EDC01CB019E878D874C
:101810008D859E859A8B898B89899A890197F1F7A5
:101820009A8B898B88E290E028E230E0F9012081F0
:101830002460FC01208388E290E028E230E0F90196
:1018400020812D7FFC01208381E20E94BC0A83E17C
:101850000E94BC0A86E00E94BC0A82EC0E94BC0A7C
:1018600080E20E94BC0A89E00E94BC0A80E80E94D3
:10187000BC0A80E40E94BC0A00E010E005C080E0E1
:101880000E94CB0A0F5F1F4F083FF1E01F07B8F31C
:1018900088E00E94BC0A8CE00E94BC0A00006C96A2
:1018A0000FB6F894DEBF0FBECDBFDF91CF911F9171
:1018B0000F9108950F931F93CF93DF93CDB7DEB7AA
:1018C00080E80E94BC0A80E40E94BC0A10925C037B
:1018D00010925D0300E010E007C0C8018C599E4FD4
:1018E000FC0110820F5F1F4F083FF1E01F07A8F3B4
:1018F0000000DF91CF911F910F910895CF93DF9357
:1019000000D000D01F92CDB7DEB78B836C834D83A0
:101910008C81869586958695882F90E044E5489F32
:101920009001499F300D11248B81882F90E0820F08
:10193000931F8C599E4F9A8389838D818823C9F088
:1019400089819A81FC018081482F8C81882F90E0C9
:101950009C012770332781E090E002C0880F991F17
:101960002A95E2F7842B282F89819A81FC01208314
:1019700019C089819A81FC018081482F8C81882F30
:1019800090E09C012770332781E090E002C0880F2F
:10199000991F2A95E2F780958423282F89819A81BF
:1019A000FC01208300000F900F900F900F900F907C
:1019B000DF91CF9108950F931F93CF93DF9300D0C2
:1019C00000D01F92CDB7DEB78C836D8310E065C069
:1019D00000E04EC08C81882F90E09C01205231099C
:1019E0009D81812F692F0E94A111482F50E0C901CC
:1019F000880F991F880F991F820F931F840F951FBF
:101A000086519F4F9A83898389819A81FC018491B1
:101A10008B838B81282F30E09D81802F692F0E943E
:101A2000A111882F90E0A90102C0559547958A958C
:101A3000E2F7CA0181709927892B61F080915D03DB
:101A4000982F900F80915C03810F41E0692F0E94D5
:101A50007E0C0BC080915D03982F900F80915C03EA
:101A6000810F40E0692F0E947E0C802F01E0080F5B
:101A7000402F50E08D81282F30E0C901880F991F39
:101A8000880F991F880F991F821B930B48175907BE
:101A90000CF4A0CF812F11E0180F412F50E08D8161
:101AA000282F30E0C901880F991F880F991F820FD6
:101AB000931F481759070CF48BCF20915C039D812D
:101AC000892F880F880F890F820F8F5F80935C03A7
:101AD00080915C03843570F010925C0320915D036B
:101AE0009D81892F880F880F880F891B820F8F5F38
:101AF00080935D0380915D03803320F010925C033E
:101B000010925D0300000F900F900F900F900F90B8
:101B1000DF91CF911F910F910895CF93DF9300D064
:101B20001F92CDB7DEB79A8389836B830CC08981FE
:101B30009A819C012F5F3F4F3A832983FC0180816A
:101B40006B810E94DB0C89819A81FC018081882352
:101B500071F700000F900F900F90DF91CF910895D3
:101B6000CF93DF9300D0CDB7DEB789836A838981B5
:101B700080935C038A8180935D0300000F900F9037
:101B8000DF91CF9108950F931F93CF93DF93CDB73C
:101B9000DEB780E80E94BC0A80E40E94BC0A00E034
:101BA00010E009C0C8018C599E4FFC0180810E9441
:101BB000CB0A0F5F1F4F083FF1E01F0798F30000AB
:101BC000DF91CF911F910F9108955058BB27AA27FD
:101BD0000E94FD0D0C94700F0E94620F38F00E945D
:101BE000690F20F039F49F3F19F426F40C945F0F2D
:101BF0000EF4E095E7FB0C94590FE92F0E94810F3A
:101C000058F3BA17620773078407950720F079F431
:101C1000A6F50C94A30F0EF4E0950B2EBA2FA02D71
:101C20000B01B90190010C01CA01A0011124FF2789
:101C3000591B99F0593F50F4503E68F11A16F04084
:101C4000A22F232F342F4427585FF3CF4695379583
:101C50002795A795F0405395C9F77EF41F16BA0B48
:101C6000620B730B840BBAF09150A1F0FF0FBB1FF6
:101C7000661F771F881FC2F70EC0BA0F621F731F3F
:101C8000841F48F4879577956795B795F7959E3F9C
:101C900008F0B0CF9395880F08F09927EE0F97952D
:101CA000879508950E94350F08F481E008950E94F9
:101CB0006B0E0C94700F0E94690F58F00E94620F17
:101CC00040F029F45F3F29F00C94590F51110C9406
:101CD000A40F0C945F0F0E94810F68F39923B1F356
:101CE000552391F3951B550BBB27AA276217730742
:101CF000840738F09F5F5F4F220F331F441FAA1FD6
:101D0000A9F335D00E2E3AF0E0E832D09150504091
:101D1000E695001CCAF72BD0FE2F29D0660F771F3F
:101D2000881FBB1F261737074807AB07B0E809F025
:101D3000BB0B802DBF01FF2793585F4F3AF09E3FAA
:101D4000510578F00C94590F0C94A40F5F3FE4F305
:101D5000983ED4F3869577956795B795F7959F5FED
:101D6000C9F7880F911D9695879597F90895E1E039
:101D7000660F771F881FBB1F621773078407BA0798
:101D800020F0621B730B840BBA0BEE1F88F7E095F3
:101D900008950E94890F88F09F5798F0B92F9927CE
:101DA000B751B0F0E1F0660F771F881F991F1AF046
:101DB000BA95C9F714C0B13091F00E94A30FB1E0F9
:101DC00008950C94A30F672F782F8827B85F39F0F8
:101DD000B93FCCF3869577956795B395D9F73EF4DF
:101DE00090958095709561957F4F8F4F9F4F089587
:101DF000E89409C097FB3EF49095809570956195A5
:101E00007F4F8F4F9F4F9923A9F0F92F96E9BB275A
:101E10009395F695879577956795B795F111F8CFD6
:101E2000FAF4BB0F11F460FF1BC06F5F7F4F8F4F41
:101E30009F4F16C0882311F096E911C0772321F037
:101E40009EE8872F762F05C0662371F096E8862FCF
:101E500070E060E02AF09A95660F771F881FDAF726
:101E6000880F9695879597F90895990F0008550F53
:101E7000AA0BE0E8FEEF16161706E807F907C0F010
:101E800012161306E407F50798F0621B730B840B18
:101E9000950B39F40A2661F0232B242B252B21F4F2
:101EA00008950A2609F4A140A6958FEF811D811D92
:101EB000089597F99F6780E870E060E008959FEFCC
:101EC00080EC089500240A941616170618060906D1
:101ED000089500240A9412161306140605060895A0
:101EE000092E0394000C11F4882352F0BB0F40F428
:101EF000BF2B11F460FF04C06F5F7F4F8F4F9F4F68
:101F0000089557FD9058440F551F59F05F3F71F0E9
:101F10004795880F97FB991F61F09F3F79F0879550
:101F20000895121613061406551FF2CF4695F1DFD9
:101F300008C0161617061806991FF1CF8695710569
:101F4000610508940895E894BB2766277727CB019D
:101F500097F908950E94350F08F48FEF089516F051
:101F60000C94F6100C945F0F68940C94590F0E9417
:101F7000890FA8F39923C1F3AEF3DF93CF931F9397
:101F80000F93FF92C92FDD2788232AF02197660F30
:101F9000771F881FDAF720E030E040E85FEB9FE32F
:101FA000883920F0803E38F021968F770E94E60D28
:101FB000E8E6F0E004C00E94E60DE5E9F0E00E94EA
:101FC00004118B01BE01EC01FB2E6F577109759551
:101FD000771F880B990B0E94FA0E28E132E741E344
:101FE0005FE30E941210AF2D9801AE01FF900F9198
:101FF0001F91CF91DF910E94FD0D0C94700F0E94F4
:1020000012100C94700F0E94620F38F00E94690F3A
:1020100020F0952311F00C94590F0C945F0F1124AC
:102020000C94A40F0E94810F70F3959FC1F3950F3C
:1020300050E0551F629FF001729FBB27F00DB11D4C
:10204000639FAA27F00DB11DAA1F649F6627B00DDC
:10205000A11D661F829F2227B00DA11D621F739FC5
:10206000B00DA11D621F839FA00D611D221F749FD3
:102070003327A00D611D231F849F600D211D822F1A
:10208000762F6A2F11249F5750409AF0F1F0882341
:102090004AF0EE0FFF1FBB1F661F771F881F91506E
:1020A0005040A9F79E3F510580F00C94590F0C94B5
:1020B000A40F5F3FE4F3983ED4F386957795679538
:1020C000B795F795E7959F5FC1F7FE2B880F911D98
:1020D0009695879597F90895FA01EE0FFF1F3096B0
:1020E00021053105A1F16115710561F48038BFE367
:1020F0009B0749F168949038810561F08038BFEF03
:102100009B0741F099234AF5FF3FE1053105210581
:1021100019F1E8940894E795D901AA2329F4AB2F83
:10212000BE2FF85FD0F310C0FF5F70F4A695E0F704
:10213000F73950F019F0FF3A38F49F779F930DD09C
:102140000F9007FC9058089546F00C945F0F60E0E4
:1021500070E080E89FE308954FE79F775F934F9388
:102160003F932F930E94B70F2F913F914F915F9113
:102170000E94FF0F0C94C41029F416F00C94590F10
:102180000C94A30F0C945F0F0E94890FA8F396384C
:10219000A0F707F80F92E8942BE33AEA48EB5FE7E1
:1021A0000E9415100F920F920F924DB75EB70F92CB
:1021B0000E946D11E2ECF0E00E9404114F915F91DA
:1021C000EF91FF91E595EE1FFF1F49F0FE57E06884
:1021D0004427EE0F441FFA95E1F74195550B0E94F5
:1021E00037110F9007FE0C942B1108959F3F31F08B
:1021F000915020F4879577956795B795880F911D35
:102200009695879597F90895DF93CF931F930F9332
:10221000FF92EF92DF927B018C01689406C0DA2E68
:10222000EF010E941210FE01E894A59125913591CD
:1022300045915591A6F3EF010E94FD0DFE01970116
:10224000A801DA9469F7DF90EF90FF900F911F914A
:10225000CF91DF9108959B01AC0160E070E080E8D0
:102260009FE30C94570E0C94590F0C94F6100E9497
:10227000890FD8F39923C9F3940F511DA3F39150FB
:10228000504094F059F0882332F0660F771F881F72
:1022900091505040C1F79E3F51052CF7880F911D7A
:1022A0009695879597F908955F3FACF0983E9CF01E
:1022B000BB27869577956795B79508F4B160939598
:1022C000C1F7BB0F58F711F460FFE8CF6F5F7F4F86
:1022D0008F4F9F4FE3CF0C94A40FFA01DC01AA0F9C
:1022E000BB1F9B01AC01BF5728F42227332744278B
:1022F000507820C0B75190F4AB2F00244695379505
:102300002795011CA395D2F3002071F0220F331FF3
:10231000441FB395DAF30ED00C94E50D61307105CE
:10232000A0E88A07B94630F49B01AC0166277727FD
:1023300088279078309621F020833183428353831D
:102340000895991B79E004C0991F961708F0961B11
:10235000881F7A95C9F780950895A1E21A2EAA1BC5
:10236000BB1BFD010DC0AA1FBB1FEE1FFF1FA21745
:10237000B307E407F50720F0A21BB30BE40BF50B42
:10238000661F771F881F991F1A9469F760957095CB
:10239000809590959B01AC01BD01CF010895052E5C
:1023A00097FB1EF400940E94E61157FD07D00E948F
:1023B000AD1107FC03D04EF40C94E61150954095F6
:1023C000309521953F4F4F4F5F4F089590958095E1
:1023D000709561957F4F8F4F9F4F0895A29FB001D9
:1023E000B39FC001A39F700D811D1124911DB29F49
:1023F000700D811D1124911D0895AEE0B0E0E3E061
:10240000F2E10C94BE140D891E8986E08C831A8338
:1024100009838FEF9FE79E838D83AE01475E5F4FF9
:102420006F89788DCE0101960E941F12EF81F88589
:10243000E00FF11F10822E96E4E00C94DA14ABE06A
:10244000B0E0E5E2F2E10C94B0146C017B018A018A
:10245000FC0117821682838181FFCCC1CE010196D7
:102460003C01F6019381F70193FD859193FF8191E2
:102470007F01882309F4BAC1853239F493FD85912F
:1024800093FF81917F01853229F4B60190E00E948B
:102490001614E7CF912C212C312CFFE1F315D8F045
:1024A0008B3279F038F4803279F08332A1F4232D25
:1024B00020611DC08D3261F0803369F4232D2160CD
:1024C00016C0832D8260382EE32DE4603E2E2AC094
:1024D000F32DF8601DC037FC2DC020ED280F2A30E9
:1024E00040F08E32B9F436FC81C1232D2064322EA7
:1024F00019C036FE06C08AE0989E200D1124922E47
:1025000011C0EAE02E9E200D1124222EF32DF06240
:102510003F2E08C08C3621F4832D8068382E02C0EF
:10252000883641F4F70193FD859193FF81917F01F6
:102530008111B3CF982F9F7D9554933028F40C5F71
:102540001F4F9FE399830DC0833631F0833771F0BD
:10255000833509F059C021C0F801808189830E5F5D
:102560001F4F88248394912C530113C02801F2E05B
:102570004F0E511CF801A080B18036FE03C0692DBA
:1025800070E002C06FEF7FEFC5010E940B144C0199
:102590008201F32DFF773F2E16C0280122E0420E64
:1025A000511CF801A080B18036FE03C0692D70E097
:1025B00002C06FEF7FEFC5010E9400144C01F32DA4
:1025C000F0683F2E820133FC1BC0822D90E08816FC
:1025D0009906B0F4B60180E290E00E9416142A94A5
:1025E000F4CFF50137FC859137FE81915F01B6018B
:1025F00090E00E94161421102A9421E0821A91087A
:102600008114910471F7E8C0843611F0893641F5E0
:10261000F80137FE07C060817181828193810C5F70
:102620001F4F08C060817181072E000C880B990B29
:102630000E5F1F4FF32DFF763F2E97FF09C0909539
:102640008095709561957F4F8F4F9F4FF0683F2E1B
:102650002AE030E0A3010E945214882E861845C05B
:10266000853731F4232D2F7EB22E2AE030E025C0AD
:10267000932D997FB92E8F36C1F018F4883579F0F3
:10268000B5C0803719F0883721F0B0C0E92FE0617C
:10269000BE2EB4FE0DC0FB2DF460BF2E09C034FE6B
:1026A0000AC0292F2660B22E06C028E030E005C0FF
:1026B00020E130E002C020E132E0F801B7FE07C0BF
:1026C00060817181828193810C5F1F4F06C06081A0
:1026D000718180E090E00E5F1F4FA3010E945214B1
:1026E000882E8618FB2DFF773F2E36FE0DC0232D3A
:1026F0002E7FA22E891458F434FE0BC032FC09C080
:10270000832D8E7EA82E05C0B82CA32C03C0B82C18
:1027100001C0B92CA4FE0FC0FE01E80DF11D80819F
:10272000803321F49A2D997EA92E09C0A2FE06C0FD
:10273000B394B39404C08A2D867809F0B394A3FCB3
:1027400011C0A0FE06C0B21488F4280C922C9B186D
:102750000EC0B21460F4B60180E290E00E9416143C
:10276000B394F7CFB21418F42B1802C0982C212C74
:10277000A4FE10C0B60180E390E00E941614A2FEF1
:1027800017C0A1FC03C088E790E002C088E590E094
:10279000B6010CC08A2D867859F0A1FE02C08BE2EA
:1027A00001C080E2A7FC8DE2B60190E00E94161401
:1027B000891438F4B60180E390E00E9416149A94CC
:1027C000F7CF8A94F301E80DF11D8081B60190E006
:1027D0000E9416148110F5CF222009F442CEB601D2
:1027E00080E290E00E9416142A94F6CFF6018681CA
:1027F000978102C08FEF9FEF2B96E2E10C94CC14EF
:10280000FC010590615070400110D8F780959095BB
:102810008E0F9F1F0895FC016150704001900110C0
:10282000D8F7809590958E0F9F1F08950F931F9353
:10283000CF93DF93FB01238121FD03C08FEF9FEF37
:102840002CC022FF16C04681578124813581421752
:10285000530744F4A081B1819D012F5F3F4F318325
:1028600020838C93268137812F5F3F4F37832683C8
:1028700014C08B01EC01FB010084F185E02D09956A
:10288000892BE1F6D80116968D919C9117970196A8
:1028900017969C938E931697CE01DF91CF911F913F
:1028A0000F910895FA01AA27283051F1203181F1C2
:1028B000E8946F936E7F6E5F7F4F8F4F9F4FAF4F48
:1028C000B1E03ED0B4E03CD0670F781F891F9A1F5B
:1028D000A11D680F791F8A1F911DA11D6A0F711D0F
:1028E000811D911DA11D20D009F468943F912AE01B
:1028F000269F11243019305D3193DEF6CF01089503
:10290000462F4770405D4193B3E00FD0C9F7F6CF33
:10291000462F4F70405D4A3318F0495D31FD4052FB
:10292000419302D0A9F7EACFB4E0A6959795879591
:1029300077956795BA95C9F7009761057105089570
:102940009B01AC010A2E069457954795379527951C
:10295000BA95C9F7620F731F841F951FA01D0895B4
:102960002F923F924F925F926F927F928F929F929F
:10297000AF92BF92CF92DF92EF92FF920F931F938D
:10298000CF93DF93CDB7DEB7CA1BDB0B0FB6F8943E
:10299000DEBF0FBECDBF09942A88398848885F847E
:1029A0006E847D848C849B84AA84B984C884DF80EF
:1029B000EE80FD800C811B81AA81B981CE0FD11DD3
:1029C0000FB6F894DEBF0FBECDBFED010895F894A9
:0229D000FFCF37
:1029D2000A03943ACF7A7539A573BC33008813B8C9
:1029E2000BE8030000000000000F000700030001D5
:1029F200000001F0007000300010002575004D6FDE
:102A0200646F00542E5664007300542E566D0054A9
:102A12002E414D003C00632F6D696E006C7578008D
:042A22002A43000043
:00000001FF
